S0160000506F6C6C696E67204472697665722E73726563AD
S1130000FDC0000021C100001FC100001DC100008F
S11300101BC1000019C1000017C1000015C1000078
S113002013C1000011C100000FC100000DC1000088
S11300300BC1000009C1000007C1000005C1000098
S113004003C1000001C10000FFC00000FDC00000AA
S1130050FBC00000F9C00000F7C00000F5C00000BC
S1130060F3C00000F1C00000EFC00000EDC00000CC
S1130070EBC00000E9C00000E7C00000E5C00000DC
S1130080E3C00000E1C00000DFC00000DDC00000EC
S1130090DBC00000D9C00000D7C00000D5C00000FC
S11300A0D3C00000D1C00000CFC00000CDC000000C
S11300B0CBC00000C9C00000C7C00000C5C000001C
S11300C0C3C00000C1C00000BFC00000BDC000002C
S11300D0BBC00000B9C00000B7C00000B5C000003C
S11300E0B3C00000B1C00000AFC00000ADC000004C
S11300F0ABC00000A9C00000A7C00000A5C000005C
S1130100A3C00000A1C000009FC000009DC000006B
S11301109BC0000099C0000097C0000095C000007B
S113012093C0000091C000008FC000008DC000008B
S11301308BC0000089C0000087C0000085C000009B
S113014083C0000081C000007FC000007DC00000AB
S11301507BC0000079C0000077C0000075C00000BB
S113016073C0000071C000006FC000006DC00000CB
S11301706BC0000069C0000067C0000065C00000DB
S113018063C0000061C000005FC000005DC00000EB
S11301905BC0000059C0000057C0000055C00000FB
S11301A053C0000051C000004FC000004DC000000B
S11301B04BC0000049C0000047C0000045C000001B
S11301C043C0000041C000003FC000003DC000002B
S11301D03BC0000039C0000037C0000035C000003B
S11301E033C0000031C000002FC000002DC000004B
S11301F02BC0000029C0000027C0000011241FBE2E
S1130200CFEFCDBFDFE3DEBF00E00CBF18BE19BEE9
S11302101ABE1BBE10E2A0E0B0E2E0E0F8E200E0AB
S11302200BBF02C007900D92AC36B107D9F71BBEC5
S113023020E2ACE6B0E201C01D92AC37B207E1F7B0
S11302400E94C70C0C94FE13DBCECF93DF931F9256
S1130250CDB7DEB78091702090917120E0916C2031
S1130260F0916D20BE016F5F7F4F19958981082E33
S1130270000C990B0F90DF91CF910895FC019181AF
S113028095FFFDCF608380E090E00895FC019181AB
S11302909923ECF7808108954F925F926F927F9239
S11302A08F929F92AF92BF92EF92FF920F931F9300
S11302B0CF937C014A015B0128013901FC0184814F
S11302C082FF16C0D901C801689412F8B695A795A3
S11302D0979587951694D1F7B901A801032E36E1B5
S11302E076956795579547953A95D1F7302D15C072
S11302F0D901C801689413F8B695A7959795879581
S11303001694D1F7B901A801032E37E176956795C4
S1130310579547953A95D1F7302D88159905AA0533
S1130320BB0508F4A6C084169506A606B70608F40D
S1130330A2C0F701848182FD04C0880C991CAA1C08
S1130340BB1CC301B201A50194010E94830E2F3F7F
S113035031054105510508F490C08FEF90E0A0E00D
S1130360B0E0C9EF05C0281739074A075B0758F002
S1130370880F991FAA1FBB1FCD3F0CF48160CF5F6C
S1130380C73089F74FC0CC230CF04CC0D501C40151
S1130390880F991FAA1FBB1F880F991FAA1FBB1F75
S11303A0880F991FAA1FBB1F481A590A6A0A7B0A99
S11303B0CE3FF4F48DEF9FEF8C1B9109C7FD93950D
S11303C004C0440C551C661C771C8A95D2F7D501D1
S11303D0C401B695A79597958795BC01CD01640D89
S11303E0751D861D971DA50194010E94830E37C0BB
S11303F083E08C0FA501940104C0220F331F441F16
S1130400551F8A95D2F7DA01C901B695A795979534
S11304108795BC01CD01640D751D861D971D0E9435
S1130420830E1DC083E08C0FA501940104C0220F2C
S1130430331F441F551F8A95D2F7DA01C901B695B7
S1130440A79597958795BC01CD01640D751D861DF3
S1130450971D0E94830E2150310941095109832FB0
S11304608F70C295C07FC82BF701C783268381E0B4
S113047018C080E016C080E014C0D501C401880F04
S1130480991FAA1FBB1F880F991FAA1FBB1F880F84
S1130490991FAA1FBB1F481A590A6A0A7B0AC9EF87
S11304A089CFCF911F910F91FF90EF90BF90AF90A4
S11304B09F908F907F906F905F904F9008950F93CF
S11304C01F93CF93DF93EC018B01009709F45DC177
S11304D0803C910529F460E180E00E949F0C55C1A5
S11304E0C03484E0D80729F468E080E00E949F0CBF
S11304F04CC1C115E4E0DE0729F464E080E00E9409
S11305009F0C43C1C038F1E0DF0729F462E080E0CA
S11305100E949F0C3AC1C11581E0D80729F461E01B
S113052080E00E949F0C31C1C038E3E0DE0729F46B
S113053061E081E00E949F0C28C1C039F3E0DF072D
S113054029F461E082E00E949F0C1FC1C11582E082
S1130550D80729F462E081E00E949F0C16C1C034E0
S1130560E2E0DE0729F462E082E00E949F0C0DC104
S1130570C115F3E0DF0729F464E081E00E949F0CD9
S113058004C1C03283E0D80729F464E082E00E9409
S11305909F0CFBC0C115E8E0DE0729F461E083E0AD
S11305A00E949F0CF2C0C115F9E0DF0729F461E055
S11305B084E00E949F0CE9C0C1158AE0D80729F4A1
S11305C061E085E00E949F0CE0C0C115EBE0DE070E
S11305D029F461E086E00E949F0CD7C0C034F8E0A3
S11305E0DF0729F462E083E00E949F0CCEC0C03490
S11305F089E0D80729F462E084E00E949F0CC5C01A
S1130600C034EAE0DE0729F462E085E00E949F0C32
S1130610BCC0C034FBE0DF0729F462E086E00E943E
S11306209F0CB3C0C03988E0D80729F464E083E0A4
S11306300E949F0CAAC0C039E9E0DE0729F464E0F7
S113064084E00E949F0CA1C0C039FAE0DF0729F4BE
S113065064E085E00E949F0C98C0C0398BE0D80705
S113066029F464E086E00E949F0C8FC0C03CE8E05F
S1130670DE0729F468E083E00E949F0C86C0C03C3A
S1130680F9E0DF0729F468E084E00E949F0C7DC054
S1130690C03C8AE0D80729F468E085E00E949F0CFA
S11306A074C0C03CEBE0DE0729F468E086E00E94F9
S11306B09F0C6BC0C03AF8E0DF0729F460E183E0E7
S11306C00E949F0C62C0C03A89E0D80729F460E117
S11306D084E00E949F0C59C0C03AEAE0DE0729F486
S11306E060E185E00E949F0C50C0C03AFBE0DF0748
S11306F029F460E186E00E949F0C47C0C03B88E07B
S1130700D80729F460E283E00E949F0C3EC0C03BFE
S1130710E9E0DE0729F460E284E00E949F0C35C022
S1130720C03BFAE0DF0729F460E285E00E949F0CF9
S11307302CC0C03B8BE0D80729F460E286E00E941D
S11307409F0C23C0C038E4E0DE0729F460E483E0B2
S11307500E949F0C1AC0C039F4E0DF0729F460E45A
S113076084E00E949F0C11C0C03A84E0D80729F4A9
S113077060E485E00E949F0C08C0C03BE4E0DE0713
S113078021F460E486E00E949F0C8D818F738D8339
S1130790F80195818481892B9681911198E0892BA8
S11307A08D83F801408151816281738100E018E4F6
S11307B028EE31E0CE0170DD9C8198609C839C81A1
S11307C090619C83DF91CF911F910F91089504C094
S11307D061507109810991096115710581059105BE
S11307E0B9F708950F931F93CF93DF938C0153D4DC
S11307F0C82FD0E0DC2FCC27C8014DD49E01282B74
S1130800C901DF91CF911F910F910895CF92DF928B
S1130810EF92FF92CF93DF93EC013DD4C82ED12CFD
S1130820E12CF12C7601DD24CC24CE0134D4D82A59
S1130830CE0131D4A7019601282BCA01B901DF9159
S1130840CF91FF90EF90DF90CF900895FC0120832B
S113085041835283638315860895CF93DF93EC011C
S1130860888127D46EE189819A811DD46BE278E670
S113087080E090E0ACDF888130D466ED74E180E004
S113088090E0A5DFDF91CF910895CF93DF93EC0142
S1130890E4DF88810ED462EA89819A8104D4898153
S11308A09A81A0DF8E879F87888117D4888101D49D
S11308B064EA89819A81F7D389819A8193DF888B4D
S11308C0998B88810AD48881F4D366EA89819A81D4
S11308D0EAD389819A8186DF8A8B9B8B8881FDD3B9
S11308E08881E7D368EA89819A81DDD389819A81F5
S11308F079DF8C8B9D8B8881F0D38881DAD36AEA87
S113090089819A81D0D389819A816CDF8E8B9F8B68
S11309108881E3D38881CDD36CEA89819A81C3D35A
S113092089819A815FDF888F998F8881D6D3DF91FF
S1130930CF910895823029F128F4882341F0813041
S113094099F046C0833051F18430A9F141C088E464
S1130950FB01808388E5FA01808380E593E2F90155
S11309608083918380E0089586E4FB01808386E59B
S1130970FA0180838CEB91E1F9018083918380E01B
S1130980089584E4FB01808384E5FA01808388EE82
S113099098E0F9018083918380E0089582E4FB016B
S11309A0808382E5FA01808382E994E0F9018083FF
S11309B0918380E0089580E4FB01808380E5FA015F
S11309C0808388E592E0F9018083918380E0089533
S11309D081E008952F923F924F925F926F927F929F
S11309E08F929F92AF92BF92CF92DF92EF92FF923B
S11309F00F931F93CF93DF93CDB7DEB7E597CDBFAA
S1130A00DEBF4C0181E0D4011C968C931C979E019F
S1130A102F5F3F4FAE014C5F5F4FBE016D5F7F4F55
S1130A201D968C9187DF882319F0F40114861DC369
S1130A30D4018C913ED36B81F4018181928133D3B3
S1130A40D4018C914AD349815A8141155105C9F188
S1130A50A12C0F2EF8E4BF2EF02D0F2EF8EECF2E82
S1130A60F02DDD24D394E12CF12C00E010E0242FB0
S1130A70352F40E050E060E070E080E090E00E94BC
S1130A80A50E0F2EF6E0AF2EF02DB12CC12CD12CDB
S1130A900E94F80E215C3D4B404F5F4F6F4F7F4FDC
S1130AA08F4F9F4F0E94E40D20E034E244E759E465
S1130AB0E9D70E94AF0D622F732F842F952F87DE05
S1130AC005C066E070E080E090E081DEF4018081A2
S1130AD0F0D260E0D40111968D919C911297E3D2EB
S1130AE0F4018181928192DE6CA77DA78EA79FA7D6
S1130AF0D4018C91F2D2F4018081DBD26C81D401D7
S1130B0011968D919C911297CED2F4018081E5D2F9
S1130B1049815A8141155105C1F1A12C0F2EF8E4E8
S1130B20BF2EF02D0F2EF8EECF2EF02DDD24D39412
S1130B30E12CF12C00E010E0242F352F40E050E0B0
S1130B4060E070E080E090E00E94A50E0F2EF6E0D9
S1130B50AF2EF02DB12CC12CD12C0E94F80E215CAB
S1130B603D4B404F5F4F6F4F7F4F8F4F9F4F0E94C2
S1130B70E40D20E034E244E759E484D7F0D7622F4F
S1130B80732F842F952F23DE05C066E070E080E08C
S1130B9090E01DDED4018C918CD260E0F40181815F
S1130BA0928181D2D40111968D919C9112972EDE5F
S1130BB06B017C01F401808190D2D40156964D9151
S1130BC05C915797242F352F40E050E060E070E0AF
S1130BD080E090E008E00E94540F2D833E834F8311
S1130BE0588769877A878B879C87970186018D81CF
S1130BF09E81AF81B885081B190B2A0B3B0B0D8313
S1130C001E832F833887330F000B102F9801098B15
S1130C101A8B2B8B3C8BD40158964D915C91599730
S1130C20AD80BE80CF80D884E988FE2C0E2D1E2D89
S1130C30242F352F40E050E060E070E080E090E049
S1130C400E94A50E07E10E946D0F822F932FA42FFF
S1130C50B52F8D879E87AF87B88B8C019D0100537C
S1130C60184F2F4F3F4F0D8B1E8B2F8B388F003D0E
S1130C701740210531050CF086C0FE2C0E2D1E2DCB
S1130C802A2D3B2D4C2D5D2D602F702F802F9E2DF6
S1130C900E94A50EC22ED32EE42EF52E062F172F5A
S1130CA0A82EB92EA0E00E949D0F84F42150310992
S1130CB0410950486F4F7F4F8F4F9F4FC22ED32E05
S1130CC0E42EF52E062F172FA82EB92E2C2D3D2DF0
S1130CD04E2D5F2D602F712F8A2D9B2D0FE10E94C9
S1130CE06D0F298F3A8F4B8F5C8F4D845E846F8498
S1130CF07888770C4408542C32012D853E854F8525
S1130D005889642D742D842D942D02E00E94540F73
S1130D10A22EB32EC42ED52EE62EF72EE82F192F91
S1130D2004E00E94540F0E2F0E94940FAD84BE84E1
S1130D30CF84D888E42CF42C042D142D0E948B0F1E
S1130D400E94A50E04E00E946D0F2D8F3E8F4F8FE1
S1130D5058A369A37AA38BA3292E2A2D3B2D4C2DAE
S1130D605D2D642D742D842D942D01E00E94540F6B
S1130D70042DEBD72D873CA34DA35EA36FA378A7C7
S1130D8089A79AA714C01D861CA21DA21EA21FA279
S1130D9018A619A61AA61D8E1E8E1F8E18A219A299
S1130DA01AA21BA2212C198E1A8E1B8E1C8E8D89C1
S1130DB09E89AF89B88D8432EAEF9E07EFEFAE07C4
S1130DC0BE070CF05DC02D893E894F89588D6C019A
S1130DD07D01FF0CCC08DC2C76016C2D7C2D8C2D38
S1130DE09C2D24523A4F4F4F5F4F6F4F7F4F8F4F81
S1130DF09F4F322E432E542E652E762EB72FA82FBA
S1130E00F92F04E00E94540FA32CB42CC52CD62C2B
S1130E10E72CFB2E0A2F1F2F0E94940FE2E02E27AF
S1130E20AD8CBE8CCF8CD8A0E9A0FAA00BA1122D5A
S1130E300E948B0F2D8F3E8F4F8F58A369A37AA3E7
S1130E408BA3292E232D342D452D562D672D7B2F35
S1130E508A2F9F2F03E00E94540F2E27AD84BCA03D
S1130E60CDA0DEA0EFA0F8A409A51AA50E948B0FBF
S1130E702D873CA34DA35EA36FA378A789A79AA748
S1130E80D40113968C9113978150823018F01C96DC
S1130E901C92EBC0F40144895589AD80BE80CF809B
S1130EA0D884E988FE2C0E2D1E2D242F352F40E0EA
S1130EB050E060E070E080E090E047D706E00E94F8
S1130EC06D0F422E532E642E752EB62FA72F382E5B
S1130ED09BA7F401A088B1882A2D3B2D40E050E067
S1130EE060E070E080E090E001E1DED7A22EB32E56
S1130EF0C42ED52EE62EF72E082F192F242D352D8E
S1130F00462D572D6B2F7A2F832D9BA50E948B0F77
S1130F10322E3BA748AB59AB6AAB7BAB8CAB9DABDA
S1130F2042895389AD80BE80CF80D884E988FE2C65
S1130F300E2D1E2D242F352F40E050E060E070E090
S1130F4080E090E002D707E0C8D7422E532E642EEB
S1130F50752EB62FA72F8D83998BF401A684B784A1
S1130F602A2D3B2D40E050E060E070E080E090E00E
S1130F7000E19AD7A22EB32EC42ED52EE62EF72E3C
S1130F80082F192F242D352D462D572D6B2F7A2FF1
S1130F908D819989C0D7AD84BCA0CDA0DEA0EFA07F
S1130FA0F8A409A51AA5C0D7CCA4DDA4EEA4FFA477
S1130FB056016701E12CF12C8701AD82BE82CF82FC
S1130FC0D886E986FA860B871C87E12CF12C00E091
S1130FD010E0BBD605E181D7422E532E642E752E28
S1130FE0B62FA72FF82FE92F232D3BA548A959A9E0
S1130FF06AA97BA98CA99DA9AD8CBE8CCF8CD8A0E5
S1131000E9A0FAA00BA1122D8FD7A22EB32EC42EC5
S1131010D52EE62EF72E082F192F242D352D462DEB
S1131020572D6B2F7A2F8F2F9E2F7ED70FE055D7FA
S1131030D40114962C93149715963C9315971696F1
S11310404C93169717965C938D899E89AF89B88DBA
S1131050A98CBA8CCB8CDC8C8A199B09AC09BD0990
S1131060F40180879187A287B387E596CDBFDEBF61
S1131070DF91CF911F910F91FF90EF90DF90CF9070
S1131080BF90AF909F908F907F906F905F904F90A4
S11310903F902F900895FC018EEF838392819923D2
S11310A0ECF783810895FC01638392819923ECF723
S11310B00895E82FE695E695E69540E2E49FF00171
S11310C01124FA5F877021E030E0A90102C0440FC7
S11310D0551F8A95E2F746830895E82FE695E6952D
S11310E0E69540E2E49FF0011124FA5F877021E065
S11310F030E0A90102C0440F551F8A95E2F74583E9
S11311000895E82FE695E695E69590E2E99FF001CB
S11311101124FA5F982F977021E030E002C0220F6B
S1131120331F9A95E2F72183D8CF08950F931F9325
S1131130CF93DF93EC018B01009709F436C1803C17
S1131140910521F460E180E0FAD32FC1C03484E03A
S1131150D80721F468E080E0F2D327C1C115E4E0A8
S1131160DE0721F464E080E0EAD31FC1C038F1E077
S1131170DF0721F462E080E0E2D317C1C11581E00A
S1131180D80721F461E080E0DAD30FC1C038E3E08E
S1131190DE0721F461E081E0D2D307C1C039F3E076
S11311A0DF0721F461E082E0CAD3FFC0C11582E009
S11311B0D80721F462E081E0C2D3F7C0C034E2E092
S11311C0DE0721F462E082E0BAD3EFC0C115F3E098
S11311D0DF0721F464E081E0B2D3E7C0C03283E0EA
S11311E0D80721F464E082E0AAD3DFC0C115E8E0A7
S11311F0DE0721F461E083E0A2D3D7C0C115F9E092
S1131200DF0721F461E084E09AD3CFC0C1158AE0FE
S1131210D80721F461E085E092D3C7C0C115EBE0A3
S1131220DE0721F461E086E08AD3BFC0C034F8E071
S1131230DF0721F462E083E082D3B7C0C03489E0E1
S1131240D80721F462E084E07AD3AFC0C034EAE086
S1131250DE0721F462E085E072D3A7C0C034FBE06E
S1131260DF0721F462E086E06AD39FC0C03988E0DA
S1131270D80721F464E083E062D397C0C039E9E081
S1131280DE0721F464E084E05AD38FC0C039FAE069
S1131290DF0721F464E085E052D387C0C0398BE0D6
S11312A0D80721F464E086E04AD37FC0C03CE8E07C
S11312B0DE0721F468E083E042D377C0C03CF9E064
S11312C0DF0721F468E084E03AD36FC0C03C8AE0D1
S11312D0D80721F468E085E032D367C0C03CEBE076
S11312E0DE0721F468E086E02AD35FC0C03AF8E064
S11312F0DF0721F460E183E022D357C0C03A89E0DC
S1131300D80721F460E184E01AD34FC0C03AEAE080
S1131310DE0721F460E185E012D347C0C03AFBE068
S1131320DF0721F460E186E00AD33FC0C03B88E0D8
S1131330D80721F460E283E002D337C0C03BE9E080
S1131340DE0721F460E284E0FAD22FC0C03BFAE069
S1131350DF0721F460E285E0F2D227C0C03B8BE0D6
S1131360D80721F460E286E0EAD21FC0C038E4E086
S1131370DE0721F460E483E0E2D217C0C039F4E070
S1131380DF0721F460E484E0DAD20FC0C03A84E0DD
S1131390D80721F460E485E0D2D207C0C03BE4E082
S11313A0DE0719F460E486E0CAD2F8018181806B1B
S11313B0818381818F7B81838481806B8483808519
S11313C08F7B808780ED8883DF91CF911F910F9170
S11313D00895CF93DF93EB010E9446018883DF9148
S11313E0CF9108950C943E010895CF92DF92EF922D
S11313F0FF920F931F93CF93DF93CDB7DEB7279759
S1131400CDBFDEBF8C01F22E842F8770CC24C39411
S1131410D12CB60102C0660F771F8A95E2F7469574
S11314204695469520E2429FC001112441E050E0D8
S11314309A5F29D28F2D8770B60102C0660F771F7D
S11314408A95E2F7F694F694F69420E2F29EC001AF
S1131450112440E050E09A5F16D20115110509F4F9
S1131460D2C1003C110521F460E180E068D2CBC117
S1131470003484E0180721F468E080E060D2C3C13E
S1131480011524E0120721F464E080E058D2BBC1C6
S1131490003881E0180721F462E080E050D2B3C143
S11314A0011521E0120721F461E080E048D2ABC1CC
S11314B0003883E0180721F461E081E040D2A3C141
S11314C0003923E0120721F461E082E038D29BC1A5
S11314D0011582E0180721F462E081E030D293C163
S11314E0003422E0120721F462E082E028D28BC1AA
S11314F0011583E0180721F464E081E020D283C160
S1131500003223E0120721F464E082E018D27BC1A8
S1131510011588E0180721F461E083E010D273C15B
S1131520011529E0120721F461E084E008D26BC1BF
S113153001158AE0180721F461E085E000D263C157
S113154001152BE0120721F461E086E0F8D15BC1BC
S1131550003488E0180721F462E083E0F0D153C13D
S1131560003429E0120721F462E084E0E8D14BC1A1
S113157000348AE0180721F462E085E0E0D143C139
S113158000342BE0120721F462E086E0D8D13BC19D
S1131590003988E0180721F464E083E0D0D133C136
S11315A0003929E0120721F464E084E0C8D12BC19A
S11315B000398AE0180721F464E085E0C0D123C132
S11315C000392BE0120721F464E086E0B8D11BC196
S11315D0003C88E0180721F468E083E0B0D113C12F
S11315E0003C29E0120721F468E084E0A8D10BC193
S11315F0003C8AE0180721F468E085E0A0D103C12B
S1131600003C2BE0120721F468E086E098D1FBC08F
S1131610003A88E0180731F560E183E090D180EA70
S113162098E0809370209093712082EF99E08093EA
S11316306E2090936F2089EE99E080936C209093B4
S11316406D20E6E0F0E284818D8385818E8386813E
S11316508F8380819181A281B38189839A83AB83B3
S1131660BC837DC0003A29E0120721F460E184E0E4
S113167066D1C9C0003A8AE0180721F460E185E028
S11316805ED1C1C0003A2BE0120721F460E186E08C
S113169056D1B9C0003B88E0180721F460E283E02A
S11316A04ED1B1C0003B29E0120721F460E284E08E
S11316B046D1A9C0003B8AE0180721F460E285E026
S11316C03ED1A1C0003B2BE0120721F460E286E08A
S11316D036D199C0003884E0180721F460E483E02F
S11316E02ED191C0003924E0120721F460E484E093
S11316F026D189C0003A84E0180721F460E485E02B
S11317001ED181C0003B24E0120721F460E486E08E
S113171016D179C0009370201093712082EF99E064
S113172080936E2090936F2089EE99E080936C20D3
S113173090936D20E6E0F0E284818D8385818E8331
S113174086818F8380819181A281B38189839A83E9
S1131750AB83BC837801003A88E0180751F460E158
S113176083E0EDD00F2EF0EAEF2EF8E0FF2EF02DFF
S113177012C020EBE21628E0F20621F460E283E0D6
S1131780DED012C080EAE81689E0F80621F460E1B0
S113179084E0D5D012C020EBE21629E0F20621F451
S11317A060E284E0CCD012C080EAE8168AE0F80651
S11317B021F460E185E0C3D012C020EBE2162AE0F8
S11317C0F20621F460E285E0BAD011C080EAE8169E
S11317D08BE0F80621F460E186E0B1D008C020EB8C
S11317E0E2162BE0F20619F460E286E0A8D0BE010E
S11317F06F5F7F4FC8010E945F0265E271E081E381
S11318009CE0B6D322C0009370201093712082EF25
S113181099E080936E2090936F2089EE99E08093F5
S11318206C2090936D20E6E0F0E284818D838581C5
S11318308E8386818F8380819181A281B381898304
S11318409A83AB83BC83780194CF2796CDBFDEBF48
S1131850DF91CF911F910F91FF90EF90DF90CF9088
S11318600895682F8091702090917120E0916E20EE
S1131870F0916F20199599231CF081E090E0089570
S11318808FEF9FEF0895CF93DF93FC0120E030E0CA
S1131890C62FD0E0DE01022E02C0B595A7950A94AA
S11318A0E2F7A0FD508B2F5F3F4F31962830310572
S11318B089F740FF0AC041FF03C0FC01658302C0F1
S11318C0FC016683FC01618302C0FC016283DF9139
S11318D0CF910895CF93DF931F921F92CDB7DEB7B8
S11318E08FEF8093700080937100809372008093D7
S11318F073008093740080937500809376008FB793
S11319008A83F8949A81E0E5F0E0808182608083A4
S11319109FBF818181FFFDCF61E080E490E025D00D
S11319208FB78983F8949981E0E5F0E080818E7F18
S113193080839FBF0F900F90DF91CF910895CF9335
S1131940DF931F92CDB7DEB79FB79983F89499813F
S1131950E82FF0E0E059FF4F6095808168236083B1
S11319609FBF0F90DF91CF9108951BBEFC0128ED1E
S113197024BF60830895089504C0615071098109EA
S113198091096115710581059105B9F70895CF9302
S1131990DF93CDB7DEB76A97CDBFDEBFECDF9ADF4A
S11319A022E143E160E476E080EA98E01EDDE0E8CD
S11319B0F6E08FEF80838FE0848324E140EC58E0ED
S11319C061E0CE0101960E94260460E476E080EC9A
S11319D098E0ACDB898195DBCE0101960E94450439
S11319E0CE0101960E94EA048C858F938B858F9398
S11319F08A858F9389858F9388858F938F818F9321
S1131A008E818F938D818F938DE190E29F938F933D
S1131A10F9D2CDBFDEBF0F2EFDE0CF2EF0E2DF2ED8
S1131A20F02D0F2EF3E1EF2EF0E2FF2EF02D02E465
S1131A3010E2CE0101960E94EA048D85811103C053
S1131A408E2D9F2D02C08C2D9D2D9F938F938C8561
S1131A508F938B858F938A858F9389858F938885C0
S1131A608F938F818F938E818F938D818F931F930B
S1131A700F93C8D266E571E681E590E07DDFCDBFC6
S1131A80DEBFD7CF0CD005C1FDD040F0F4D030F08C
S1131A9021F45F3F19F0D6C051112FC1D9C00AD12A
S1131AA098F39923C9F35523B1F3951B550BBB2721
S1131AB0AA2762177307840738F09F5F5F4F220FCE
S1131AC0331F441FAA1FA9F333D00E2E3AF0E0E8C7
S1131AD030D091505040E695001CCAF729D0FE2F13
S1131AE027D0660F771F881FBB1F261737074807A5
S1131AF0AB07B0E809F0BB0B802DBF01FF2793585B
S1131B005F4F2AF09E3F510568F09CC0F6C05F3FCE
S1131B10ECF3983EDCF3869577956795B795F79542
S1131B209F5FC9F7880F911D9695879597F908953A
S1131B30E1E0660F771F881FBB1F621773078407D6
S1131B40BA0720F0621B730B840BBA0BEE1F88F7E5
S1131B50E0950895BEE304D008F490E80895BFE347
S1131B6022273327A901AED058F19F5740F1B91766
S1131B7038F1BFE3B91B9927B8503AF4660F771FC1
S1131B80881F991FB395D2F316C0B8504AF0232F7B
S1131B90342F452F562F672F782F8827B850BAF740
S1131BA0B85F49F08695779567955795479537952A
S1131BB02795BA95B9F70EF44ED088940895889471
S1131BC060E070E0CB010895E894F92F96EBFF23D1
S1131BD081F0121613061406440B9395F695879517
S1131BE07795679557954040FF23B9F71BC0992710
S1131BF00895882351F49850D2F7872B762F652FB8
S1131C00542F432F322F20E0B1F31216130614067B
S1131C10440B88233AF09A95440F551F661F771F8B
S1131C20881FCAF755234AF4440F551F11F460FF67
S1131C3004C06F5F7F4F8F4F9F4F880F9695879596
S1131C4097F9089597F99F6780E870E060E0089538
S1131C509FEF80EC089590958095709560955095D0
S1131C604095309521953F4F4F4F5F4F6F4F7F4FBA
S1131C708F4F9F4F089500240A94161617061806CE
S1131C800906089500240A9412161306140605067C
S1131C900895092E0394000C11F4882352F0BB0F0D
S1131CA040F4BF2B11F460FF04C06F5F7F4F8F4F70
S1131CB09F4F089557FD9058440F551F59F05F3FAB
S1131CC071F04795880F97FB991F61F09F3F79F05A
S1131CD087950895121613061406551FF2CF4695DC
S1131CE0F1DF08C0161617061806991FF1CF86955E
S1131CF07105610508940895E894BB276627772742
S1131D00CB0197F90895A1E21A2EAA1BBB1BFD0172
S1131D100DC0AA1FBB1FEE1FFF1FA217B307E407C6
S1131D20F50720F0A21BB30BE40BF50B661F771F1E
S1131D30881F991F1A9469F76095709580959095FE
S1131D409B01AC01BD01CF010895DF93CF931F9395
S1131D500F939A9DF02D219FF00D8B9DF00D8A9D80
S1131D60E02DF10D039FF00D029FE00DF11D4E9D3E
S1131D70E00DF11D5E9DF00D4F9DF00D7F936F936F
S1131D80BF92AF925F934F93D501E3D08B01AC0127
S1131D90D701DFD0EB01E80FF91FD6011FD02F9137
S1131DA03F91D601D6D0C60FD71FE81FF91FAF91B8
S1131DB0BF9114D02F913F91CCD0C60FD71FE81FED
S1131DC0F91FD601C6D0E60FF71F9801BE01CF0157
S1131DD011240F911F91CF91DF910895BAD0460F2E
S1131DE0571FC81FD91F08F431960895689401C07D
S1131DF0E8948F929F92CF93DF9305D0DF91CF9198
S1131E009F908F90089588249924F401E401B0E40C
S1131E109F93AA279A158B049C04ED05FE05CF0514
S1131E20D007A10798F4AD2FDC2FCF2FFE2FE92D7B
S1131E30982C892E982F872F762F652F542F432F78
S1131E40322F2227B85031F7BF9127C01B2EBF91E4
S1131E50BB27220F331F441F551F661F771F881F80
S1131E60991F881C991CEE1FFF1FCC1FDD1FAA1F82
S1131E70BB1F8A149B04EC05FD05CE05DF05A007F6
S1131E80B10748F08A189B08EC09FD09CE09DF095F
S1131E90A00BB10B21601A94E1F62EF49401AF016A
S1131EA0BE01CD01000C08950F93083090F0982FD7
S1131EB0872F762F652F542F432F322F2227085038
S1131EC0F4CF220F331F441F551F661F771F881F2F
S1131ED0991F0A95B2F70F91089597FB10F816947D
S1131EE000080F93083098F00850232F342F452F03
S1131EF0562F672F782F892F902DF4CF059497951F
S1131F0087957795679557954795379527950A95BA
S1131F10AAF70F9108952A0D3B1D4C1D5D1D6E1DE2
S1131F207F1D801F911F08952A193B094C095D09E3
S1131F306E097F09800B910B08950024A7FD00947E
S1131F402A17300540055005600570058005900589
S1131F500895A29FB001B39FC001A39F700D811D7E
S1131F601124911DB29F700D811D1124911D08959E
S1131F700F931F93CF93DF93009731F4611571058D
S1131F8019F480E090E039C08B01EC016EE070E060
S1131F9081E090E041D2FC01892B99F380E88383AE
S1131FA00115110571F00287138781E883838091FD
S1131FB0722090917320892B21F4E0937220F09386
S1131FC073202097C9F0C087D1878381826083837F
S1131FD08091742090917520892B71F4E093742082
S1131FE0F09375208091762090917720892B21F4AD
S1131FF0E0937620F0937720CF01DF91CF911F916A
S11320000F910895CF93DF93CDB7DEB7AE014A5F4A
S11320105F4FFA0161917191AF01809174209091A9
S1132020752003D0DF91CF9108952F923F924F9264
S11320305F926F927F928F929F92AF92BF92CF9254
S1132040DF92EF92FF920F931F93CF93DF93CDB75D
S1132050DEB72B97CDBFDEBF6C017B018A01FC018B
S113206016821782838181FFBFC1CE0101963C0194
S1132070F6019381F70193FD859193FF81917F018F
S1132080882309F4ADC1853239F493FD859193FF1A
S113209081917F01853221F4B60190E015D3E8CF18
S11320A0912C212C312CFFE1F315D8F08B3279F0EF
S11320B038F4803279F08332A1F4232D20611DC0DD
S11320C08D3261F0803369F4232D216016C0832D95
S11320D08260382EE32DE4603E2E2AC0F32DF86092
S11320E01DC037FC2DC020ED280F2A3040F08E3261
S11320F0B9F436FC75C1232D2064322E19C036FE86
S113210006C08AE0989E200D1124922E11C0EAE0A8
S11321102E9E200D1124222EF32DF0623F2E08C096
S11321208C3621F4832D8068382E02C0883641F421
S1132130F70193FD859193FF81917F018111B3CFC5
S1132140982F9F7D9554933028F40C5F1F4F9FE385
S113215099830DC0833631F0833771F0833509F0EC
S113216055C020C0F801808189830E5F1F4F8824E9
S11321708394912C530112C02801F2E04F0E511C9C
S1132180F801A080B18036FE03C0692D70E002C062
S11321906FEF7FEFC5018DD24C018201F32DFF77E4
S11321A03F2E15C0280122E0420E511CF801A080E8
S11321B0B18036FE03C0692D70E002C06FEF7FEF7F
S11321C0C50165D24C01F32DF0683F2E820133FC2A
S11321D019C0822D90E088169906A0F4B60180E219
S11321E090E072D22A94F5CFF50137FC859137FE41
S11321F081915F01B60190E067D221102A9421E019
S1132200821A91088114910479F7E1C0843611F09F
S1132210893639F5F80137FE07C060817181828102
S113222093810C5F1F4F08C060817181072E000CE1
S1132230880B990B0E5F1F4FF32DFF763F2E97FFF0
S113224009C090958095709561957F4F8F4F9F4FF2
S1132250F0683F2E2AE030E0A30172D2882E86185F
S113226044C0853731F4232D2F7EB22E2AE030E08E
S113227025C0932D997FB92E8F36C1F018F4883577
S113228079F0AEC0803719F0883721F0A9C0E92F62
S1132290E061BE2EB4FE0DC0FB2DF460BF2E09C05C
S11322A034FE0AC0292F2660B22E06C028E030E092
S11322B005C020E130E002C020E132E0F801B7FEC1
S11322C007C060817181828193810C5F1F4F06C0BA
S11322D06081718180E090E00E5F1F4FA30130D2D6
S11322E0882E8618FB2DFF773F2E36FE0DC0232D3A
S11322F02E7FA22E891458F434FE0BC032FC09C080
S1132300832D8E7EA82E05C0B82CA32C03C0B82C18
S113231001C0B92CA4FE0FC0FE01E80DF11D80819F
S1132320803321F49A2D997EA92E09C0A2FE06C0FD
S1132330B394B39404C08A2D867809F0B394A3FCB3
S113234010C0A0FE06C0B21480F4280C922C9B1876
S11323500DC0B21458F4B60180E290E0B5D1B39444
S1132360F8CFB21418F42B1802C0982C212CA4FE18
S11323700FC0B60180E390E0A7D1A2FE16C0A1FC75
S113238003C088E790E002C088E590E0B6010CC085
S11323908A2D867851F0A1FE02C08BE201C080E252
S11323A0A7FC8DE2B60190E08FD1891430F4B60118
S11323B080E390E089D19A94F8CF8A94F301E80DF0
S11323C0F11D8081B60190E07FD18110F6CF2220EB
S11323D009F44ECEB60180E290E076D12A94F7CF8C
S11323E0F6018681978102C08FEF9FEF2B96CDBFB8
S11323F0DEBFDF91CF911F910F91FF90EF90DF909F
S1132400CF90BF90AF909F908F907F906F905F9090
S11324104F903F902F9008950F931F93CF93DF9386
S1132420869F8001879F100D969F100D1124C8016F
S11324300DD0EC01009721F0A80160E070E032D1EA
S1132440CE01DF91CF911F910F9108950F931F93A8
S1132450CF93DF938230910510F482E090E0E09115
S11324607A20F0917B2020E030E0A0E0B0E03097CB
S113247019F1408151810281138148175907C8F02D
S11324808417950769F4109731F012960C931297FC
S113249013961C9327C000937A2010937B2022C0AC
S11324A02115310519F04217530718F49A01BD019B
S11324B0EF01DF01F801DBCF21153105F9F0281B0D
S11324C0390B2430310580F48A819B8161157105B3
S11324D021F0FB018283938304C080937A2090933C
S11324E07B20FE01329644C0FE01E20FF31F81936C
S11324F0919322503109288339833AC0209178205E
S113250030917920232B41F4209102203091032033
S1132510209378203093792020910020309101205D
S11325202115310541F42DB73EB740910420509157
S11325300520241B350BE0917820F0917920E217D7
S1132540F307A0F42E1B3F0B2817390778F0AC01D2
S11325504E5F5F4F2417350748F04E0F5F1F4093BF
S11325607820509379208193919302C0E0E0F0E0C9
S1132570CF01DF91CF911F910F910895CF93DF93F6
S1132580009709F481C0FC01329712821382A09152
S11325907A20B0917B20109781F420813181820FC1
S11325A0931F20917820309179202817390751F50D
S11325B0E0937820F093792067C0ED0120E030E0CB
S11325C0CE17DF0740F44A815B819E014115510516
S11325D0F1F0EA01F5CFC283D38340815181840FA6
S11325E0951FC817D90759F488819981840F951FBD
S11325F00296808391838A819B81828393832115B0
S1132600310529F4E0937A20F0937B203DC0E90161
S1132610EA83FB8349915991C40FD51FEC17FD0739
S113262061F480819181840F951F0296E90188836A
S11326309983828193818A839B83E0E0F0E0129600
S11326408D919C911397009719F0FD01DC01F7CF50
S11326508D919C9111979D012E5F3F4F820F931F87
S113266020917820309179202817390769F4309720
S113267029F410927A2010927B2002C012821382D5
S1132680A0937820B0937920DF91CF910895FC0135
S11326900590615070400110D8F7809590958E0F89
S11326A09F1F0895DC0101C06D9341505040E0F735
S11326B00895FC016150704001900110D8F7809595
S11326C090958E0F9F1F08950F931F93CF93DF93C1
S11326D0FB01238121FD03C08FEF9FEF2CC022FF5C
S11326E016C046815781248135814217530744F42B
S11326F0A081B1819D012F5F3F4F208331838C9353
S1132700268137812F5F3F4F2683378314C08B0187
S1132710EC01FB010084F185E02D1995892BE1F68C
S1132720D80116968D919C911797019616968D93C4
S11327309C931797CE01DF91CF911F910F9108952C
S1132740FA01AA27283051F1203181F1E8946F93DE
S11327506E7F6E5F7F4F8F4F9F4FAF4FB1E03ED084
S1132760B4E03CD0670F781F891F9A1FA11D680F22
S1132770791F8A1F911DA11D6A0F711D811D911D55
S1132780A11D20D009F468943F912AE0269F1124CA
S11327903019305D3193DEF6CF010895462F47702E
S11327A0405D4193B3E00FD0C9F7F6CF462F4F7089
S11327B0405D4A3318F0495D31FD4052419302D0E7
S11327C0A9F7EACFB4E0A69597958795779567958D
S11327D0BA95C9F700976105710508959B01AC018D
S11327E00A2E06945795479537952795BA95C9F7B4
S11327F0620F731F841F951FA01D0895F894FFCFC7
S113280000007C20200000C2010003000156616C1E
S11328106964004E6F742076616C6964005072655F
S1132820737375726520697320256C692C20746537
S11328306D706572617475726520697320256C69A9
S11328400A00507265737375726520697320256C74
S1132850692C2074656D7065726174757265206988
S10F28607320256C692C2025730A0000ED
S9030000FC
