S01D00004D533536585820506F6C6C696E67204472697665722E73726563CB
S113000074C1000093C1000091C100008FC10000C1
S11300108DC100008BC1000089C1000087C10000B0
S113002085C1000083C1000081C100007FC10000C0
S11300307DC100007BC1000079C1000077C10000D0
S113004075C1000073C1000071C100006FC10000E0
S11300506DC100006BC1000069C1000067C10000F0
S113006065C1000063C1000061C100005FC1000000
S11300705DC100005BC1000059C1000057C1000010
S113008055C1000053C1000051C100004FC1000020
S11300904DC100004BC1000049C1000047C1000030
S11300A045C1000043C1000041C100003FC1000040
S11300B03DC100003BC1000039C1000037C1000050
S11300C035C1000033C1000031C100002FC1000060
S11300D02DC100002BC1000029C1000027C1000070
S11300E025C1000023C1000021C100001FC1000080
S11300F01DC100001BC1000019C1000017C1000090
S113010015C1000013C1000011C100000FC100009F
S11301100DC100000BC1000009C1000007C10000AF
S113012005C1000003C1000001C10000FFC00000C0
S1130130FDC00000FBC00000F9C00000F7C00000D3
S1130140F5C00000F3C00000F1C00000EFC00000E3
S1130150EDC00000EBC00000E9C00000E7C00000F3
S1130160E5C00000E3C00000E1C00000DFC0000003
S1130170DDC00000DBC00000D9C00000D7C0000013
S1130180D5C00000D3C00000D1C00000CFC0000023
S1130190CDC00000CBC00000C9C00000C7C0000033
S11301A0C5C00000C3C00000C1C00000BFC0000043
S11301B0BDC00000BBC00000B9C00000B7C0000053
S11301C0B5C00000B3C00000B1C00000AFC0000063
S11301D0ADC00000ABC00000A9C00000A7C0000073
S11301E0A5C00000A3C000006E616E00696E6600C9
S11301F000407A10F35A00A0724E18090010A5D4DA
S1130200E80000E87648170000E40B54020000CA36
S11302109A3B000000E1F50500008096980000007C
S113022040420F000000A0860100000010270000DB
S11302300000E803000000006400000000000A0061
S1130240000000000100000000002C76D888DC6764
S11302504F0823DFC1DFAE59E1B1B796E5E3E453BC
S1130260C63AE651997696E8E6C28426EB898C9BD9
S113027062ED407C6FFCEFBC9C9F40F2BAA56FA579
S1130280F490055A2AF75C936B6CF9676DC11BFCFB
S1130290E0E40D47FEF520E6B500D0ED902E030016
S11302A0943577050080841E080000204E0A000063
S11302B000C80C333333330F986E12831141EF8D22
S11302C02114893BE65516CFFEE6DB18D1844B3862
S11302D01BF77C1D901DA4BBE424203284725E2293
S11302E08100C9F124ECA1E53D2711241FBECFEF05
S11302F0CDBFDFE5DEBF00E00CBF10E2A0E0B0E25E
S1130300EEEEFEE200E00BBF02C007900D92A233B6
S1130310B107D9F720E2A2E3B0E201C01D92A234F2
S1130320B207E1F70E94650D0C94751769CE8FEF43
S113033080937000809371008093720080937300A7
S11303408093740080937500809376009FB7F8942F
S1130350E0E5F0E08081826080839FBF818181FF3E
S1130360FDCF61E080E490E068D09FB7F894E0E5C9
S1130370F0E080818E7F80839FBF08959FB7F894BB
S1130380E82FF0E0E059FF4F609580816823608397
S11303909FBF0895CF93DF93FC01709620E030E077
S11303A0C62FD0E0DE01022E02C0B595A7950A94AF
S11303B0E2F7A0FD50832F5F3F4F3196283031057F
S11303C089F740FF0AC041FF03C0FC01658302C0F6
S11303D0FC016683FC01618302C0FC016283DF913E
S11303E0CF910895CF93DF931F92CDB7DEB780915D
S11303F0362090913720E0913220F0913320BE01D5
S11304006F5F7F4F19958981082E000C990B0F900F
S1130410DF91CF910895682F8091362090913720F5
S1130420E0913420F0913520199599231CF081E056
S113043090E008958FEF9FEF08951BBEFC0128ED17
S113044024BF60830895FC01918195FFFDCF6083F3
S113045080E090E00895FC0191819923ECF780817C
S113046008952F923F924F925F926F927F928F9254
S11304709F92AF92BF92CF92DF92EF92FF920F932F
S11304801F93CF931C012A013B0148015901D90153
S1130490C801689412F8B695A79597958795169410
S11304A0D1F7B901A801032E36E1769567955795E2
S11304B047953A95D1F7302DF101248122FD08C0EA
S11304C0B695A7959795879576956795579547958A
S11304D084159505A605B70508F4AEC0441655065F
S11304E06606770608F4AAC0F101848182FD04C07F
S11304F0440C551C661C771CC501B401A301920170
S11305000E9499122F3F31054105510508F498C006
S1130510C12CD12C7601CA94C9EF05C02C153D0518
S11305204E055F0568F0CC0CDD1CEE1CFF1CCD3FB6
S113053014F46894C0F8CF5FC73081F78C2F56C08D
S11305408C2FCC230CF052C0D301C201880F991F09
S1130550AA1FBB1F880F991FAA1FBB1F880F991FB3
S1130560AA1FBB1F85017401E81AF90A0A0B1B0BA9
S1130570D801C701CE3FF4F42DEF3FEF2C1B310916
S1130580C7FD339504C0880F991FAA1FBB1F2A9566
S1130590D2F773016201F694E794D794C794BC012F
S11305A0CD016C0D7D1D8E1D9F1DA30192010E9426
S11305B0991238C023E02C0F8301720104C0EE0CA1
S11305C0FF1C001F111F2A95D2F7A801970167018C
S11305D07801F694E794D794C794BC01CD016C0DCF
S11305E07D1D8E1D9F1D0E9499121CC08D5FA3014D
S11305F0920104C0220F331F441F551F8A95D2F75E
S1130600DA01C901B695A79597958795BC01CD01E7
S1130610680D791D8A1D9B1D0E9499122150310974
S113062041095109832F8F70C295C07FC82BF101F6
S1130630C783268381E01CC080E01AC080E018C014
S1130640D301C201880F991FAA1FBB1F880F991FCE
S1130650AA1FBB1F880F991FAA1FBB1F8501740106
S1130660E81AF90A0A0B1B0BD801C701C9EF84CF9A
S1130670CF911F910F91FF90EF90DF90CF90BF909B
S1130680AF909F908F907F906F905F904F903F902E
S11306902F9008950F931F93CF93DF93EC018B0159
S11306A0009709F40EC1803C910521F460E180E0DB
S11306B065DE07C1C11584E0D80721F464E080E059
S11306C05DDEFFC0C038E1E0DE0721F462E080E0D7
S11306D055DEF7C0C115F1E0DF0721F461E080E0E9
S11306E04DDEEFC0C03883E0D80721F461E081E03B
S11306F045DEE7C0C039E3E0DE0721F461E082E0D3
S11307003DDEDFC0C115F2E0DF0721F462E081E0E5
S113071035DED7C0C03482E0D80721F462E082E03D
S11307202DDECFC0C032E3E0DE0721F464E082E0D6
S113073025DEC7C0C115F8E0DF0721F461E083E0DE
S11307401DDEBFC0C11589E0D80721F461E084E053
S113075015DEB7C0C115EAE0DE0721F461E085E0EB
S11307600DDEAFC0C115FBE0DF0721F461E086E0D8
S113077005DEA7C0C03488E0D80721F462E083E036
S1130780FDDD9FC0C034E9E0DE0721F462E084E0CF
S1130790F5DD97C0C034FAE0DF0721F462E085E0BC
S11307A0EDDD8FC0C03988E0D80721F464E083E030
S11307B0E5DD87C0C039E9E0DE0721F464E084E0C8
S11307C0DDDD7FC0C039FAE0DF0721F464E085E0B5
S11307D0D5DD77C0C0398BE0D80721F464E086E02A
S11307E0CDDD6FC0C03CE8E0DE0721F468E083E0C3
S11307F0C5DD67C0C03CF9E0DF0721F468E084E0B0
S1130800BDDD5FC0C03C8AE0D80721F468E085E024
S1130810B5DD57C0C03CEBE0DE0721F468E086E0BC
S1130820ADDD4FC0C03AF8E0DF0721F460E183E0BA
S1130830A5DD47C0C03A89E0D80721F460E184E02F
S11308409DDD3FC0C03AEAE0DE0721F460E185E0C7
S113085095DD37C0C03AFBE0DF0721F460E186E0B4
S11308608DDD2FC0C03B88E0D80721F460E283E02F
S113087085DD27C0C03BE9E0DE0721F460E284E0C7
S11308807DDD1FC0C03BFAE0DF0721F460E285E0B4
S113089075DD17C0C03B8BE0D80721F460E286E029
S11308A06DDD0FC0C038E4E0DE0721F460E483E0CE
S11308B065DD07C0C03AF4E0DF0719F460E485E0C1
S11308C05DDD8D818F738D83F80194818581892B02
S11308D09681911198E0892B8D83F8014081518193
S11308E06281738100E018E428EE31E0CE01B9DDC5
S11308F09C8198609C839C8190619C83DF91CF91C3
S11309001F910F9108950F931F93CF93DF938C0141
S1130910F7D4C82FD0E0DC2FCC27C801F1D49E0136
S1130920282BC901DF91CF911F910F910895CF9288
S1130930DF92EF92FF92CF93DF93EC01E1D4C82EC4
S1130940D12CE12CF12C7601DD24CC24CE01D8D499
S1130950D82ACE01D5D4A7019601282BCA01B90102
S1130960DF91CF91FF90EF90DF90CF900895FC013D
S1130970208341835283638315860895CF93DF9345
S1130980EC018881CBD46EE189819A81C1D420E0C5
S113099030E02F5F3F4F2A3288E63807D1F788814D
S11309A0D1D480E090E00196853D24E19207D9F707
S11309B0DF91CF910895CF93DF93EC01DFDF88813E
S11309C0ADD462EA89819A81A3D489819A819BDF1B
S11309D08E879F878881B6D48881A0D464EA898170
S11309E09A8196D489819A818EDF888B998B8881AC
S11309F0A9D4888193D466EA89819A8189D489812A
S1130A009A8181DF8A8B9B8B88819CD4888186D450
S1130A1068EA89819A817CD489819A8174DF8C8B7C
S1130A209D8B88818FD4888179D46AEA89819A815F
S1130A306FD489819A8167DF8E8B9F8B888182D462
S1130A4088816CD46CEA89819A8162D489819A8183
S1130A505ADF888F998F888175D4DF91CF9108955B
S1130A60823029F128F4882341F0813099F046C07E
S1130A70833051F18430A9F141C088E4FB018083C3
S1130A8088E5FA01808380E593E2F901808391830C
S1130A9080E0089586E4FB01808386E5FA01808383
S1130AA08CEB91E1F9018083918380E0089584E4E3
S1130AB0FB01808384E5FA01808388EE98E0F901E4
S1130AC08083918380E0089582E4FB01808382E542
S1130AD0FA01808382E994E0F9018083918380E0C4
S1130AE0089580E4FB01808380E5FA01808388E532
S1130AF092E0F9018083918380E0089581E0089574
S1130B002F923F924F925F926F927F928F929F9219
S1130B10AF92BF92CF92DF92EF92FF920F931F9307
S1130B20CF93DF93CDB7DEB7EE97CDBFDEBF1C0109
S1130B3081E0D1011C968C931C979E012F5F3F4F3F
S1130B40AE014C5F5F4FBE016D5F7F4F1D968C9170
S1130B5087DF882319F0F1011486BCC3D1018C917D
S1130B60DDD36B81F10181819281D2D3D1018C914A
S1130B70E9D349815A81A12C0F2EF8E4BF2EF02D20
S1130B800F2EF8EECF2EF02DDD24D394E12CF12C92
S1130B9000E010E0242F352F40E050E060E070E0EA
S1130BA080E090E00E94BB12215C3D4B404F5F4FC0
S1130BB06F4F7F4F8F4F9F4F0E94780E20E03BE195
S1130BC047EB5AE4F3D70E94430EF22FE32F8F2F03
S1130BD09E2FA42FB52F0197A109B109E1F7F101C7
S1130BE080819CD360E0D10111968D919C911297E4
S1130BF08FD3F101818192819ADE6BAB7CAB8DAB9B
S1130C009EABD1018C919ED3F101808187D36C81FD
S1130C10D10111968D919C9112977AD3F101808123
S1130C2091D349815A81A12C0F2EF8E4BF2EF02DC7
S1130C300F2EF8EECF2EF02DDD24D394E12CF12CE1
S1130C4000E010E0242F352F40E050E060E070E039
S1130C5080E090E00E94BB12215C3D4B404F5F4F0F
S1130C606F4F7F4F8F4F9F4F0E94780E20E03BE1E4
S1130C7047EB5AE49BD70E94430EF22FE32F8F2FAA
S1130C809E2FA42FB52F0197A109B109E1F7D10136
S1130C908C9144D360E0F1018181928139D3D101F7
S1130CA011968D919C91129742DE6B017C01F101AA
S1130CB0808148D3D10156968D919C915797A0E09D
S1130CC0B0E0BA2FA92F982F882797018601081B17
S1130CD0190B2A0B3B0B0D831E832F833887330F8D
S1130CE0000B102F98010D871E872F87388BD10199
S1130CF058960D911C915997A02EB12EC12CD12C30
S1130D00E12CF12C00E010E02D813E814F815885CB
S1130D106D85762F862F962F0E94BB12F22E032FFD
S1130D20142FB52FF62FE72F582E692EA0E00E941E
S1130D302B1484F42150310940485F4F6F4F7F4F8B
S1130D408F4F9F4FF22E032F142FB52FF62FE72F1F
S1130D50582E692E2F2D302F412F5B2F6F2F7E2F72
S1130D60852D962D07E10E94EF13422E532E642EFB
S1130D70752E930182010053184F2F4F3F4F0D8B57
S1130D801E8B2F8B388F003D1740210531050CF049
S1130D9097C0AD80BE80CF80D884ED84FE2C0E2D0C
S1130DA01E2D2A2D3B2D4C2D5D2D602F702F802F55
S1130DB09E2D0E94BB12A12CB12CC12C6894DD2461
S1130DC0D7F8E12CF12C00E010E00E940E1328A3C8
S1130DD039A34AA35BA3D301C201BB0F880B982F8D
S1130DE0DC01898B9A8BAB8BBC8BA42CB52CC62CC9
S1130DF0D72CE988FE2C0E2D1E2D242D352D462DA5
S1130E00572D602F702F802F9E2D0E94BB12B22F62
S1130E10F32FE42F552E662E772E882E992E05E07B
S1130E200E94D613AB2EBF2ECE2ED52CE62CF72C3B
S1130E30082D192D0E94221401E00E94D613082DBA
S1130E400E942214422E398B4A8F5B8F6C8F7D8FC8
S1130E508E8F9F8FA0E00E942B145CF4AFE00E9461
S1130E601614422E398B4A8F5B8F6C8F7D8F8E8F39
S1130E709F8F242D39894A8D5B8D6C8D7D8D8E8D50
S1130E809F8D04E00E94EF13298B3A8F4B8F5C8F68
S1130E906D8F7E8F8F8F9AA72B2F3F2F4E2F552D1F
S1130EA0662D772D882D992D01E00E94D6132BA74E
S1130EB03CA74DA75EA76FA778AB89AB9AAB14C0CC
S1130EC01BA61CA61DA61EA61FA618AA19AA1AAA06
S1130ED0198A1A8E1B8E1C8E1D8E1E8E1F8E1AA6AC
S1130EE018A219A21AA21BA2AD88BE88CF88D88CDA
S1130EF004E2A0160AEFB0060FEFC006D0060CF00D
S1130F005DC02D893E894F89588D76016501FF0C9E
S1130F10CC08DC2C76016C2D7C2D8C2D9C2D245240
S1130F203A4F4F4F5F4F6F4F7F4F8F4F9F4F522E10
S1130F30632E742E852E962EB72FA82FF92F04E03A
S1130F400E94D613A52CB62CC72CD82CE92CFB2E2A
S1130F500A2F1F2F0E942214E2E02E27A988BA8CA0
S1130F60CB8CDC8CED8CFE8C0F8D1AA50E940D149D
S1130F70298B3A8F4B8F5C8F6D8F7E8F8F8F9AA7C3
S1130F80252D362D472D582D692D7B2F8A2F9F2FE8
S1130F9003E00E94D6132E27ABA4BCA4CDA4DEA4E8
S1130FA0EFA4F8A809A91AA90E940D142BA73CA71D
S1130FB04DA75EA76FA778AB89AB9AABD1015096CA
S1130FC08D909C905197282D392D40E050E060E0A1
S1130FD070E080E090E001E10E94D613722E398F18
S1130FE04CA35DA36EA37FA388A799A754960D91E4
S1130FF01C915597A02EB12EC12CD12CE12CF12C93
S113100000E010E02D813E814F8158856D85762F5B
S1131010862F962F0E94BB12F22E032F142FB52F6A
S1131020F62FE72F882E992EA0E00E942B145CF453
S1131030AFE30E941614F22E032F142FB52FF62FB0
S1131040E72F882E992E2F2D302F412F5B2F6F2FB6
S11310507E2F882D992D06E00E94EF13A22EB32E29
S1131060C42ED52EE62EF72E082F192F272D398DB5
S11310704CA15DA16EA17FA188A599A50E940D1424
S1131080298F3CA34DA35EA36FA378A789A79FAB29
S1131090F10186849784282D392D40E050E060E0EA
S11310A070E080E090E000E10E94D613722E38AF29
S11310B049AF5AAF6BAF7CAF8DAF9EAF0289138936
S11310C0A02EB12EC12CD12CE12CF12C00E010E08B
S11310D02D813E814F8158856D85762F862F962FE1
S11310E00E94BB12F22E032F142FB52FF62FE72FD9
S11310F0882E992EA0E00E942B145CF4AFE70E9486
S11311001614F22E032F142FB52FF62FE72F882E47
S1131110992E2F2D302F412F5B2F6F2F7E2F882D4F
S1131120992D07E00E94EF13A22EB32EC42ED52EC4
S1131130E62EF72E082F192F272D38AD49AD5AADBD
S11311406BAD7CAD8DAD9EAD0E940D14CBA8DCA81B
S1131150EDA8FEA856016701E12CF12C8701AD82B0
S1131160BE82CF82D886E986FA860B871C87ABA419
S1131170BCA4CDA4DEA4EFA4F8A809A91AA90E94CE
S11311802214A22EB32EC42ED52EE62EF72E082F0F
S1131190192F2D813E814F81588560E070E080E0F9
S11311A090E00E94BB12F22E032F142FB52FF62FBE
S11311B0E72F582E692EA0E00E942B1484F42150AE
S11311C03109404E5F4F6F4F7F4F8F4F9F4FF22E2D
S11311D0032F142FB52FF62FE72F582E692E2F2DFE
S11311E0302F412F5B2F6F2F7E2F852D962D05E1FC
S11311F00E94EF13622E732E842E952EB62FA72FE6
S1131200F82FE92F298D3CA14DA15EA16FA178A5EE
S113121089A59FA9A988BA8CCB8CDC8CED8CFE8C1B
S11312200F8D1AA50E942214A22EB32EC42ED52EE1
S1131230E62EF72E082F192F262D372D482D592D40
S11312406B2F7A2F8F2F9E2F0E942214F22E032FA2
S1131250142FB52FF62FE72F582E692EA0E00E94E9
S11312602B1484F4215030484F4F5F4F6F4F7F4F02
S11312708F4F9F4FF22E032F142FB52FF62FE72FEA
S1131280582E692E2F2D302F412F5B2F6F2F7E2F3D
S1131290852D962D0FE00E94EF13D10114962C9307
S11312A0149715963C93159716964C931697179684
S11312B05C938D899E89AF89B88DA8A0B9A0CAA076
S11312C0DBA08A199B09AC09BD09F10180879187CC
S11312D0A287B387EE96CDBFDEBFDF91CF911F917A
S11312E00F91FF90EF90DF90CF90BF90AF909F90C1
S11312F08F907F906F905F904F903F902F900895C4
S1131300FC018EEF838392819923ECF78381089506
S1131310FC01638392819923ECF70895E82FE69505
S1131320E695E69540E2E49FF0011124FA5F8770A8
S113133021E030E0A90102C0440F551F8A95E2F76D
S113134046830895E82FE695E695E69540E2E49F06
S1131350F0011124FA5F877021E030E0A90102C096
S1131360440F551F8A95E2F745830895E82FE695C3
S1131370E695E69590E2E99FF0011124FA5F982F33
S1131380977021E030E002C0220F331F9A95E2F7F4
S11313902183D8CF08950F931F93CF93DF93EC014C
S11313A08B01009709F430C1803C910529F460E178
S11313B080E00E94BE0128C1C11584E0D80729F449
S11313C064E080E00E94BE011FC1C038E1E0DE0796
S11313D029F462E080E00E94BE0116C1C115F1E06B
S11313E0DF0729F461E080E00E94BE010DC1C0382E
S11313F083E0D80729F461E081E00E94BE0104C1C2
S1131400C039E3E0DE0729F461E082E00E94BE0116
S1131410FBC0C115F2E0DF0729F462E081E00E941D
S1131420BE01F2C0C03482E0D80729F462E082E051
S11314300E94BE01E9C0C032E3E0DE0729F464E0A3
S113144082E00E94BE01E0C0C115F8E0DF0729F484
S113145061E083E00E94BE01D7C0C11589E0D807CE
S113146029F461E084E00E94BE01CEC0C115EAE027
S1131470DE0729F461E085E00E94BE01C5C0C11504
S1131480FBE0DF0729F461E086E00E94BE01BCC0F6
S1131490C03488E0D80729F462E083E00E94BE01EA
S11314A0B3C0C034E9E0DE0729F462E084E00E94BE
S11314B0BE01AAC0C034FAE0DF0729F462E085E087
S11314C00E94BE01A1C0C03988E0D80729F464E0B5
S11314D083E00E94BE0198C0C039E9E0DE0729F428
S11314E064E084E00E94BE018FC0C039FAE0DF07E7
S11314F029F464E085E00E94BE0186C0C0398BE017
S1131500D80729F464E086E00E94BE017DC0C03C97
S1131510E8E0DE0729F468E083E00E94BE0174C0BD
S1131520C03CF9E0DF0729F468E084E00E94BE01D2
S11315306BC0C03C8AE0D80729F468E085E00E94CB
S1131540BE0162C0C03CEBE0DE0729F468E086E03F
S11315500E94BE0159C0C03AF8E0DF0729F460E1F7
S113156083E00E94BE0150C0C03A89E0D80729F444
S113157060E184E00E94BE0147C0C03AEAE0DE07B1
S113158029F460E185E00E94BE013EC0C03AFBE060
S1131590DF0729F460E186E00E94BE0135C0C03B4C
S11315A088E0D80729F460E283E00E94BE012CC0E1
S11315B0C03BE9E0DE0729F460E284E00E94BE015A
S11315C023C0C03BFAE0DF0729F460E285E00E9413
S11315D0BE011AC0C03B8BE0D80729F460E286E064
S11315E00E94BE0111C0C038E4E0DE0729F460E4C3
S11315F083E00E94BE0108C0C03AF4E0DF0721F492
S113160060E485E00E94BE01F8018181806B8183E2
S113161081818F7B81838481806B848380858F7BB0
S1131620808780ED8883DF91CF911F910F9108957A
S11316300895CF93DF93EB010E942B028883DF91FF
S1131640CF9108950C9423020895CF92DF92EF92E4
S1131650FF920F931F93CF93DF93CDB7DEB72797F6
S1131660CDBFDEBF8C01F22E842F8770CC24C394AF
S1131670D12CB60102C0660F771F8A95E2F7469512
S11316804695469520E2429FC001112441E050E076
S11316909A5F0E94CA018F2D8770B60102C0660F3F
S11316A0771F8A95E2F7F694F694F69420E2F29E78
S11316B0C001112440E050E09A5F0E94CA01011564
S11316C0110509F4D4C1003C110529F460E180E05E
S11316D00E94BE01CCC1011584E0180729F464E01E
S11316E080E00E94BE01C3C1003821E0120729F442
S11316F062E080E00E94BE01BAC1011581E01807D2
S113170029F461E080E00E94BE01B1C1003823E009
S1131710120729F461E081E00E94BE01A8C10039EA
S113172083E0180729F461E082E00E94BE019FC1B2
S1131730011522E0120729F462E081E00E94BE0153
S113174096C1003482E0180729F462E082E00E9426
S1131750BE018DC1003223E0120729F464E082E067
S11317600E94BE0184C1011588E0180729F461E0D4
S113177083E00E94BE017BC1011529E0120729F410
S113178061E084E00E94BE0172C101158AE018077D
S113179029F461E085E00E94BE0169C101152BE0D6
S11317A0120729F461E086E00E94BE0160C10034A2
S11317B088E0180729F462E083E00E94BE0157C163
S11317C0003429E0120729F462E084E00E94BE019B
S11317D04EC100348AE0180729F462E085E00E94D3
S11317E0BE0145C1003928E0120729F464E083E012
S11317F00E94BE013CC1003989E0180729F464E065
S113180084E00E94BE0133C100392AE0120729F4A2
S113181064E085E00E94BE012AC100398BE018070C
S113182029F464E086E00E94BE0121C1003C28E066
S1131830120729F468E083E00E94BE0118C1003C4D
S113184089E0180729F468E084E00E94BE010FC112
S1131850003C2AE0120729F468E085E00E94BE01FA
S113186006C1003C8BE0180729F468E086E00E947A
S1131870BE01FDC0003A28E0120739F560E183E0BB
S11318800E94BE0180EA98E080933620909337202E
S113189082E29BE0809334209093352089E19BE0A1
S11318A08093322090933320E6E0F0E284818D83AC
S11318B085818E8386818F8380819181A281B3818A
S11318C089839A83AB83BC8376C0003A89E0180786
S11318D029F460E184E00E94BE01C9C0003A2AE014
S11318E0120729F460E185E00E94BE01C0C0003AFD
S11318F08BE0180729F460E186E00E94BE01B7C0BE
S1131900003B28E0120729F460E283E00E94BE0154
S1131910AEC0003B89E0180729F460E284E00E942D
S1131920BE01A5C0003B2AE0120729F460E285E06D
S11319300E94BE019CC0003B8BE0180729F460E2C2
S113194086E00E94BE0193C0003824E0120729F407
S113195060E483E00E94BE018AC0003A84E0180774
S113196029F460E485E00E94BE0181C00093362022
S11319701093372082E29BE08093342090933520AB
S113198089E19BE08093322090933320E6E0F0E2FB
S113199084818D8385818E8386818F8380819181EB
S11319A0A281B38189839A83AB83BC837801003A93
S11319B028E0120759F460E183E00E94BE010F2E73
S11319C0F0EAEF2EF8E0FF2EF02D14C080EBE816BD
S11319D088E0F80629F460E283E00E94BE0114C0A6
S11319E020EAE21629E0F20629F460E184E00E948C
S11319F0BE0114C080EBE81689E0F80629F460E221
S1131A0084E00E94BE0114C020EAE2162AE0F20635
S1131A1029F460E185E00E94BE0114C080EBE81661
S1131A208AE0F80629F460E285E00E94BE0113C052
S1131A3020EAE2162BE0F20629F460E186E00E9437
S1131A40BE0109C080EBE8168BE0F80621F460E2E1
S1131A5086E00E94BE01BE016F5F7F4FC8010E94F5
S1131A604A0362EF71E08BE092E0FED722C000935C
S1131A7036201093372082E29BE0809334209093A9
S1131A80352089E19BE08093322090933320E6E077
S1131A90F0E284818D8385818E8386818F8380812A
S1131AA09181A281B38189839A83AB83BC837801BA
S1131AB08DCF2796CDBFDEBFDF91CF911F910F91C0
S1131AC0FF90EF90DF90CF900895CF93DF93CDB741
S1131AD0DEB76A97CDBFDEBFABDD0E94970122E17E
S1131AE043E160E476E080EA98E0AFDD24E140EC95
S1131AF058E061E0CE0101960E94B70460E476E00C
S1131B0080EC98E048DC898131DCCE0101960E94AA
S1131B10DB04CE0101960E9480058C858F938B8512
S1131B208F938A858F9389858F9388858F938F81EF
S1131B308F938E818F938D818F938DE090E29F930D
S1131B408F930E94B615CDBFDEBF0DE010E20F2EBD
S1131B50F5E5CF2EF02D0F2EF1E6DF2EF02D0F2E12
S1131B60F1E5EF2EF02DF12CCE0101960E948005B7
S1131B708C858F938B858F938A858F9389858F939B
S1131B8088858F938F818F938E818F938D818F938F
S1131B901F930F93EBD7CDBFDEBF8C2D9D2DAE2DA4
S1131BA0BF2D0197A109B109E1F7DECF0CD005C122
S1131BB0FDD040F0F4D030F021F45F3F19F0D6C0EE
S1131BC051112FC1D9C00AD198F39923C9F35523D0
S1131BD0B1F3951B550BBB27AA276217730784071C
S1131BE038F09F5F5F4F220F331F441FAA1FA9F3D2
S1131BF033D00E2E3AF0E0E830D091505040E695C4
S1131C00001CCAF729D0FE2F27D0660F771F881F24
S1131C10BB1F261737074807AB07B0E809F0BB0B13
S1131C20802DBF01FF2793585F4F2AF09E3F510537
S1131C3068F09CC0F6C05F3FECF3983EDCF38695F9
S1131C4077956795B795F7959F5FC9F7880F911DAD
S1131C509695879597F90895E1E0660F771F881F99
S1131C60BB1F621773078407BA0720F0621B730B4C
S1131C70840BBA0BEE1F88F7E0950895BEE304D0F9
S1131C8008F490E80895BFE322273327A901AED0D2
S1131C9058F19F5740F1B91738F1BFE3B91B9927A1
S1131CA0B8503AF4660F771F881F991FB395D2F383
S1131CB016C0B8504AF0232F342F452F562F672FC4
S1131CC0782F8827B850BAF7B85F49F0869577958A
S1131CD067955795479537952795BA95B9F70EF4B3
S1131CE04ED088940895889460E070E0CB01089504
S1131CF0E894F92F96EBFF2381F0121613061406CD
S1131D00440B9395F695879577956795579540403D
S1131D10FF23B9F71BC099270895882351F49850DD
S1131D20D2F7872B762F652F542F432F322F20E0A5
S1131D30B1F3121613061406440B88233AF09A954D
S1131D40440F551F661F771F881FCAF755234AF48F
S1131D50440F551F11F460FF04C06F5F7F4F8F4F16
S1131D609F4F880F9695879597F9089597F99F67E0
S1131D7080E870E060E008959FEF80EC089590950E
S1131D8080957095609550954095309521953F4F7D
S1131D904F4F5F4F6F4F7F4F8F4F9F4F08950024DA
S1131DA00A941616170618060906089500240A94BC
S1131DB012161306140605060895092E0394000C42
S1131DC011F4882352F0BB0F40F4BF2B11F460FFD1
S1131DD004C06F5F7F4F8F4F9F4F089557FD9058FA
S1131DE0440F551F59F05F3F71F04795880F97FBDB
S1131DF0991F61F09F3F79F0879508951216130695
S1131E001406551FF2CF4695F1DF08C016161706C3
S1131E101806991FF1CF86957105610508940895F8
S1131E20E894BB2766277727CB0197F908952F926B
S1131E303F924F925F926F927F928F929F92AF9256
S1131E40BF92CF92DF92EF92FF920F931F93CF93A3
S1131E50DF93CDB7DEB76397CDBFDEBF6C014B0117
S1131E602A01FC0116821782838181FF29C3AE01F6
S1131E704F5F5F4F3A01F6019381F40193FD859121
S1131E8093FF81914F01882309F416C3853239F4F5
S1131E9093FD859193FF81914F01853231F4B60111
S1131EA090E02CD652012501E6CF10E0F12C20E081
S1131EB02032A0F48B3269F030F4803259F083324E
S1131EC069F420612CC08D3239F0803339F42160FB
S1131ED026C02260246023C0286021C027FD27C0BB
S1131EE030ED380F3A3078F426FF06C0FAE01F9F31
S1131EF0300D1124132F13C04AE0F49E300D112429
S1131F00F32E20620CC08E3221F426FDD5C220644B
S1131F1006C08C3611F4206802C0883641F4F401FE
S1131F2093FD859193FF81914F018111C1CF9BEB6B
S1131F30980F933018F42061805E06C09BE9980FD7
S1131F40933008F064C12F7E26FF16E02F73322EE3
S1131F50853619F42064322E08C0863621F4F22F17
S1131F60F0683F2E02C01111115037FE07C01C3318
S1131F7050F4EE24E394E10E27E00BC0183038F05F
S1131F8027E017E005C027E04CE3E42E02C0212F30
S1131F90E12C520144E0A40EB11CF2016081718174
S1131FA0828193810E2DA30171D42C01098100FF3C
S1131FB002C003FF07C031FC08C032FE09C030E292
S1131FC0232E07C02DE2222E04C09BE2292E01C03D
S1131FD0212C802F8C7019F0211051C28DC237FE34
S1131FE00FC0E40C04FF04C08A81813309F4EA942D
S1131FF01E1474F5F8E0FE1578F588E0E82E2CC080
S113200036FC2AC0812F90E0841595059CF02CEFB6
S113201042162FEF520674F0432D4068342E0AC046
S1132020E2E0F0E0EC0FFD1FE10FF11D8081803351
S113203019F411501111F4CF37FE0EC0EE24E394BD
S1132040E10E812F90E0481659062CF4141904C0AF
S1132050EE24E39401C010E037FE06C01414150406
S113206034F4C201019605C085E090E002C081E02D
S113207090E021100196112331F0212F30E02F5FE1
S11320803F4F820F931F2F2D30E08217930714F4D4
S1132090F81A01C0F12C832D897041F4FF2031F02E
S11320A0B60180E290E02AD5FA94F8CF222021F0FC
S11320B0B601822D90E022D533FC08C0FF2031F018
S11320C0B60180E390E01AD5FA94F8CF37FE58C0F1
S11320D0942D852D57FE02C090E080E0292E382EE5
S11320E020E030E0A2014E1951094C875D87A2011E
S11320F0421953094E875F87612F70E044275527A3
S1132100461B570B488B598B5FEF2516350641F458
S1132110B6018EE290E02A8B3B8BF0D43B892A896E
S1132120421453046CF04C855D854215530544F408
S1132130EE85FF85E20FF31FE60DF71D818101C0D7
S113214080E351E0251A31082F5F3F4F48895989B0
S11321502416350644F0B60190E02A8B3B8BCED48E
S11321602A893B89D1CF2414350439F49A819633D2
S113217018F4953311F404FF81E3B60190E045C0EF
S11321808A81813309F00F7EB60190E0B7D4111132
S113219005C034FC16C085E690E015C0B6018EE299
S11321A090E0ACD482E0EE24E394E80EF301E80F6F
S11321B0F11D8081B60190E0A1D411508E2D99F7C4
S11321C0E8CF85E490E0B60199D457FC05C04114EA
S11321D0510439F404FF05C05194419451088DE22F
S11321E001C08BE2B60190E089D480E39AE04916FD
S11321F051042CF08F5F5AE0451A5108F7CFB6010D
S113220090E07CD4B601C201C09678D44CC1833628
S113221031F0833779F0833509F054C020C052017E
S1132220E2E0AE0EB11CF2018081898301E010E08E
S1132230230113C05201F2E0AF0EB11CF201408041
S1132240518026FF03C0612F70E002C06FEF7FEF63
S1132250C2012A8BFED38C012A892F7714C0520124
S1132260F2E0AF0EB11CF2014080518026FF03C0A2
S1132270612F70E002C06FEF7FEFC2012A8BDED3C3
S11322808C012A892068322E23FD18C08F2D90E0FE
S11322900817190798F4B60180E290E02FD4FA9455
S11322A0F5CFF20137FC859137FE81912F01B601FC
S11322B090E024D4F110FA9401501109011511058C
S11322C081F7F1C0843611F0893651F5520127FFA8
S11322D009C0F4E0AF0EB11CF2016081718182810A
S11322E093810AC0F2E0AF0EB11CF20160817181EA
S11322F0072E000C880B990B2F76322E97FF09C0FE
S113230090958095709561957F4F8F4F9F4F206872
S1132310322E2AE030E0A3013CD4E82EE6183EC079
S1132320022F853721F40F7E2AE030E01DC0097F9B
S11323308F3691F018F4883559F0BEC0803719F003
S1132340883711F0B9C0006104FF09C0046007C0F8
S113235024FF08C0066006C028E030E005C020E184
S113236030E002C020E132E0520107FF09C0F4E08E
S1132370AF0EB11CF201608171818281938108C02A
S1132380F2E0AF0EB11CF2016081718180E090E057
S1132390A301FFD3E82EE6180F77302E36FE0BC0CC
S11323A0332D3E7FE11650F434FE0AC032FC08C0DF
S11323B0332D3E7E05C00E2D332D03C00E2D01C0DE
S11323C0012F34FF0CC0FE01EE0DF11D808180331E
S11323D011F4397E08C032FF05C00E5F04C0832F9C
S11323E0867809F00F5F33FD12C030FF06C01E2D42
S11323F00F1518F41F0D101B0F2D0F1560F4B601E7
S113240080E290E03B8B7AD30F5F3B89F6CF0F15C8
S113241010F4F01A01C0F12C34FF11C0B60180E3AE
S113242090E03B8B6BD33B8932FF16C031FD03C078
S113243088E790E002C088E590E0B6010CC0832FE5
S1132440867851F031FF02C08BE201C080E237FD93
S11324508DE2B60190E052D3E11630F4B60180E388
S113246090E04CD31150F8CFEA94F301EE0DF11D36
S11324708081B60190E042D3E110F6CF14C0F4E0BD
S1132480FF1548F584E0F81A33FE1DC0211024C05E
S113249003FF27C008EE11E0F32DF0713F2EF80181
S11324A08491811121C0FF2009F4FDCCB60180E2A2
S11324B090E024D3FA94F7CFF6018681978123C064
S11324C08FEF9FEF20C0B60180E290E017D3FA941B
S11324D0F110F9CFDBCFF12CB601822D90E00ED3B1
S11324E0D7CF0CEE11E0D8CF31108052B60190E076
S11324F005D30F5F1F4FD3CF23E02F1510F483E0D4
S1132500C2CFF12CC5CF6396CDBFDEBFDF91CF9193
S11325101F910F91FF90EF90DF90CF90BF90AF90FD
S11325209F908F907F906F905F904F903F902F90EF
S11325300895A1E21A2EAA1BBB1BFD010DC0AA1F00
S1132540BB1FEE1FFF1FA217B307E407F50720F018
S1132550A21BB30BE40BF50B661F771F881F991F93
S11325601A9469F760957095809590959B01AC01DC
S1132570BD01CF010895DF93CF931F930F939A9DCD
S1132580F02D219FF00D8B9DF00D8A9DE02DF10D16
S1132590039FF00D029FE00DF11D4E9DE00DF11D16
S11325A05E9DF00D4F9DF00D7F936F93BF92AF92A0
S11325B05F934F93D5015BD18B01AC01D70157D108
S11325C0EB01E80FF91FD6011FD02F913F91D601DF
S11325D04ED1C60FD71FE81FF91FAF91BF9114D07A
S11325E02F913F9144D1C60FD71FE81FF91FD60181
S11325F03ED1E60FF71F9801BE01CF0111240F91C0
S11326001F91CF91DF91089532D1460F571FC81FF4
S1132610D91F08F431960895689401C0E894F92FFD
S1132620F12B0AF027C0A0E0B0E0E8E1F3E193C0A9
S1132630092E05941AF479D0112392F4F0E80F26A8
S1132640FFEFE094F09400951095B094C094D0946A
S1132650A194BF0ACF0ADF0AEF0AFF0A0F0B1F0B70
S113266013D007FC62D0CDB7DEB7ECE08DC0689420
S113267001C0E8948F929F92CF93DF9305D0DF91AE
S1132680CF919F908F90089588249924F401E401B8
S1132690B0E49F93AA279A158B049C04ED05FE05CC
S11326A0CF05D007A10798F4AD2FDC2FCF2FFE2F35
S11326B0E92D982C892E982F872F762F652F542F4C
S11326C0432F322F2227B85031F7BF9127C01B2E3A
S11326D0BF91BB27220F331F441F551F661F771F4F
S11326E0881F991F881C991CEE1FFF1FCC1FDD1F1C
S11326F0AA1FBB1F8A149B04EC05FD05CE05DF054C
S1132700A007B10748F08A189B08EC09FD09CE0917
S1132710DF09A00BB10B21601A94E1F62EF49401A9
S1132720AF01BE01CD01000C0895609570958095B0
S1132730909530954095509521953F4F4F4F5F4F61
S11327406F4F7F4F8F4F9F4F08952F923F924F921D
S11327505F926F927F928F929F92AF92BF92CF922D
S1132760DF92EF92FF920F931F93CF93DF93CDB736
S1132770DEB7CA1BDB0BCDBFDEBF19942A883988AC
S113278048885F846E847D848C849B84AA84B98405
S1132790C884DF80EE80FD800C811B81AA81B98111
S11327A0CE0FD11DCDBFDEBFED0108950F930830CC
S11327B090F0982F872F762F652F542F432F322F89
S11327C022270850F4CF220F331F441F551F661FC2
S11327D0771F881F991F0A95B2F70F91089597FBE9
S11327E010F8169400080F93083098F00850232F1F
S11327F0342F452F562F672F782F892F902DF4CF04
S11328000594979587957795679557954795379547
S113281027950A95AAF70F9108952A0D3B1D4C1D83
S11328205D1D6E1D7F1D801F911F08950024A7FD4F
S113283000942A0F301D401D501D601D701D801D09
S1132840901D08952A193B094C095D096E097F09F9
S1132850800B910B08950024A7FD00942A173005DE
S11328604005500560057005800590050895A29FF8
S1132870B001B39FC001A39F700D811D1124911D50
S1132880B29F700D811D1124911D0895283008F008
S113289027E03327DA01990F311D87FD91600096F7
S11328A06105710539F432602E5F3D9330E32A955A
S11328B0E1F708959F3F30F080387105610509F014
S11328C03C5F3C5F3D93913008F08068911DDF933D
S11328D0CF931F930F93FF92EF92192F987F9695A2
S11328E0E92F96959695E90FFF27E65BFD4F99270B
S11328F03327EE24FF24A701E701059008940794E9
S113290028F4360FE71EF81E491F511D660F771F66
S1132910881F991F0694A1F70590079428F4E70EE1
S1132920F81E491F561FC11D770F881F991F661F68
S11329300694A1F70590079428F4F80E491F561F32
S1132940C71FD11D880F991F661F771F0694A1F713
S11329500590079420F4490F561FC71FD81F990FDD
S1132960661F771F881F0694A9F784911095177026
S113297041F0D695C79557954795F794E7941A95DE
S1132980C1F7E0EFF1E068941590159135916591E8
S1132990959105907FE27395E118F10A430B560B6C
S11329A0C90BD009C0F7E10CF11E431F561FC91F04
S11329B0D01D7EF4703311F48A95E6CFE89401506B
S11329C030F0080F0AF40027021708F4202F23958B
S11329D0022F7A3328F079E37D932A95E9F710C022
S11329E07D932A9589F6069497956795379517955B
S11329F01794E118F10A430B560BC90BD00998F050
S1132A0023957E9173957A3308F070E37C932013B9
S1132A10B8F77E9170617D9330F0839571E37D9377
S1132A2070E32A95E1F71124EF90FF900F911F9125
S1132A30CF91DF91992787FD90950895FC0105902A
S1132A40615070400110D8F7809590958E0F9F1FAC
S1132A500895FC016150704001900110D8F78095F1
S1132A6090958E0F9F1F08950F931F93CF93DF931D
S1132A70009731F46115710519F480E090E039C0D4
S1132A808B01EC016EE070E081E090E0E0D0FC01AD
S1132A90892B99F380E883830115110571F002876E
S1132AA0138781E883838091382090913920892B82
S1132AB021F4E0933820F09339202097C9F0C0879F
S1132AC0D18783818260838380913A2090913B20D7
S1132AD0892B71F4E0933A20F0933B2080913C20C1
S1132AE090913D20892B21F4E0933C20F0933D20EC
S1132AF0CF01DF91CF911F910F9108950F931F93F1
S1132B00CF93DF93FB01238121FD03C08FEF9FEF60
S1132B1028C022FF16C0468157812481358142177F
S1132B20530744F4A081B1819D012F5F3F4F20835F
S1132B3031838C93268137812F5F3F4F26833783E0
S1132B4010C0EB01092F182F0084F185E02D199591
S1132B50892BE1F68E819F8101968E839F83812F3D
S1132B60902FDF91CF911F910F910895CF93DF9311
S1132B70CDB7DEB7AE014A5F5F4FFA016191719143
S1132B80AF0180913A2090913B2051D9DF91CF91B0
S1132B900895FA01AA27283051F1203181F1E894EF
S1132BA06F936E7F6E5F7F4F8F4F9F4FAF4FB1E03C
S1132BB03ED0B4E03CD0670F781F891F9A1FA11D37
S1132BC0680F791F8A1F911DA11D6A0F711D811D38
S1132BD0911DA11D20D009F468943F912AE0269FFD
S1132BE011243019305D3193DEF6CF010895462F5C
S1132BF04770405D4193B3E00FD0C9F7F6CF462F3D
S1132C004F70405D4A3318F0495D31FD40524193A5
S1132C1002D0A9F7EACFB4E0A69597958795779562
S1132C206795BA95C9F700976105710508959B01E9
S1132C30AC010A2E06945795479537952795BA9572
S1132C40C9F7620F731F841F951FA01D08950F936A
S1132C501F93CF93DF93869F8001879F100D969FCC
S1132C60100D1124C8010DD0EC01009721F0A8012A
S1132C7060E070E033D1CE01DF91CF911F910F91CD
S1132C800895CF93DF938230910510F482E090E0B1
S1132C90E0914020F091412020E030E0C0E0D0E01D
S1132CA0309711F14081518148175907C0F04817F6
S1132CB0590761F482819381209719F08A839B8359
S1132CC02BC0809340209093412026C021153105CC
S1132CD019F04217530718F49A01BE01DF01EF01FE
S1132CE00280F381E02DDCCF2115310509F1281B89
S1132CF0390B2430310590F412968D919C911397E1
S1132D006115710521F0FB018283938304C08093D4
S1132D10402090934120FD01329644C0FD01E20F12
S1132D20F31F81939193225031092D933C933AC020
S1132D3020913E2030913F20232B41F4209102200A
S1132D403091032020933E2030933F202091002097
S1132D50309101202115310541F42DB73EB7409142
S1132D60042050910520241B350BE0913E20F09166
S1132D703F20E217F307A0F42E1B3F0B2817390757
S1132D8078F0AC014E5F5F4F2417350748F04E0FC3
S1132D905F1F40933E2050933F208193919302C044
S1132DA0E0E0F0E0CF01DF91CF9108950F931F93FE
S1132DB0CF93DF93009709F48CC0FC013297128201
S1132DC0138200914020109141200115110581F4D6
S1132DD020813181820F931F20913E2030913F202A
S1132DE02817390779F5E0933E20F0933F2071C00E
S1132DF0D80140E050E0AE17BF0750F412962D9171
S1132E003C911397AD012115310509F1D901F3CF97
S1132E109D01DA012283338360817181860F971FBC
S1132E208217930769F4EC0128813981260F371F33
S1132E302E5F3F4F208331838A819B8182839383DA
S1132E40452B29F4E0934020F093412042C0129690
S1132E50ED93FC931397ED01499159919E01240F31
S1132E60351FE217F30771F480819181840F951F58
S1132E7002968D939C9311978281938112968D93E0
S1132E809C931397E0E0F0E0D80112968D919C9109
S1132E901397009719F0F8018C01F6CF8D919C914E
S1132EA098012E5F3F4F820F931F20913E20309157
S1132EB03F202817390769F4309729F410924020ED
S1132EC01092412002C01282138200933E2010937C
S1132ED03F20DF91CF911F910F910895DC0101C034
S1112EE06D9341505040E0F70895F894FFCFF1
S1132EEE00004220200000C2010003000150726560
S1132EFE737375726520697320256C692C20746553
S1132F0E6D706572617475726520697320256C69C4
S1052F1E0A00A3
S9030000FC
